:020000040800F2
:10000000680600202902000865020008670200084F
:10001000690200086B0200086D0200080000000081
:100020000000000000000000000000006F02000857
:100030007102000800000000730200085D0400085F
:1000400077020008770200087702000877020008AC
:10005000770200087702000877020008770200089C
:10006000770200087702000877020008770200088C
:10007000770200087702000877020008770200087C
:10008000770200087702000877020008770200086C
:10009000770200087702000877020008770200085C
:1000A000770200087702000877020008770200084C
:1000B000770200087702000877020008770200083C
:1000C000770200087702000877020008770200082C
:1000D000770200087702000877020008770200081C
:1000E000770200087702000877020008770200080C
:1000F00077020008770200087702000877020008FC
:1001000077020008770200087702000877020008EB
:1001100077020008770200087702000877020008DB
:1001200077020008770200087702000877020008CB
:1001300077020008770200087702000877020008BB
:1001400077020008770200087702000877020008AB
:10015000770200087702000877020008770200089B
:10016000770200087702000877020008770200088B
:1001700077020008770200087702000800000000FC
:10018000770200087702000800F002F800F03CF85F
:100190000AA090E8000C82448344AAF10107DA45E2
:1001A00001D100F031F8AFF2090EBAE80F0013F0F8
:1001B000010F18BFFB1A43F00103184700040000A9
:1001C00020040000103A24BF78C878C1FAD852073A
:1001D00024BF30C830C144BF04680C6070470000C1
:1001E0000023002400250026103A28BF78C1FBD840
:1001F000520728BF30C148BF0B6070471FB500F0E1
:10020000D7F91FBD10B510BD00F053F81146FFF728
:10021000F5FF00F0A7F900F071F803B4FFF7F2FF63
:1002200003BC00F079F8000016481749174B9942B3
:100230003CBF50F8042B41F8042BF8D314494FF07D
:1002400000028B4238BF43F8042BFAD3DFF8440096
:10025000016841F470010160BFF34F8FBFF36F8FEE
:100260000D480047FEE7FEE7FEE7FEE7FEE7FEE794
:10027000FEE7FEE7FEE7FEE708480949094A0A4BA0
:1002800070470000DC05000800000020040000208A
:100290006806002088ED00E0890100086800002061
:1002A000680600206802002068020020704770473E
:1002B0007047754600F02CF8AE4605006946534677
:1002C00020F00700854618B020B5FFF7D5FFBDE840
:1002D00020404FF000064FF000074FF000084FF0AD
:1002E000000B21F00701AC46ACE8C009ACE8C0093E
:1002F000ACE8C009ACE8C0098D46704710B50446AB
:10030000AFF300802046BDE81040FFF786BF000035
:10031000004870470400002001491820ABBEFEE7EA
:1003200026000200704700001E4AD16C41F0100107
:10033000D1641C4A116E41F4006111661A480168CB
:100340004FF400326FF4403301EA030141EA020145
:100350000160416A4FF001026FF00F0301EA0301EF
:1003600041EA02014162C1686FF440324FF000037C
:1003700001EA020141EA0301C16041684FF6FF62F0
:100380004FF0000301EA020141EA03014160816884
:100390006FF440324FF4003301EA020141EA0301F5
:1003A000816000000010024000100048144880687E
:1003B00020F003001249886000BF1148006800F077
:1003C00002000028F9D00E48006820F008000C490F
:1003D00008600846006840F00800086008460068A9
:1003E00020F0F00008600846006840F070000860E7
:1003F00000BF0348006800F002000028F9D07047F1
:10040000001002400349086000BF02490968002942
:10041000FBD17047000000200F48C06C40F0010085
:100420000D49C8644FF09040006840F6FF41884392
:100430004FF0904108600846C06840F6FF4188438D
:100440004FF09041C8600846C06840F6AA010843D2
:100450004FF09041C86070470010024004480068A7
:10046000002804DD02480068401E0149086070470A
:100470000000002030B5024600204FF0E021086166
:10048000501E486148170F21002804DB0B071C0E83
:100490000F4B1C5406E00B071D0E0E4B00F00F0413
:1004A000241F1D5500BF00204FF0E0218861084641
:1004B000006920F0040008610846006940F002006D
:1004C00008610846006940F00100086130BD000085
:1004D00000E400E018ED00E02048006820F0100083
:1004E0001E49086027201D492831086040F2E73086
:1004F000091D086019481830006819490840174953
:10050000183108600846006840F06000086008463E
:10051000006840F00800086010482030006820F0B3
:1005200008000E49203108600846006840F00400C9
:1005300008600A484430006840F4004007494431EC
:1005400008604FF4FA7005493431086003480068C8
:1005500040F001000149086070470000002C014094
:100560008FFFFEFF012401254FF47A77FFF7DCFEB1
:10057000FFF7B2FFFFF750FFFFF718FF3846FFF70E
:1005800079FF12E040F2E730844201DA002C00DC0F
:100590006D422C44054804600120FFF733FF00261C
:1005A00000E0761CB6F57A7FFBDBEBE7342C0140EC
:1005B0004FF04070E1EE100A70470000DC050008C3
:1005C0000000002004000000C4010008E00500084D
:1005D0000400002064060000E001000800000000A4
:0400000500000000F7
:00000001FF
